{
  "_format": "hh-sol-artifact-1",
  "contractName": "TheRainbowTribeX",
  "sourceName": "contracts/TheRainbowTribe.sol",
  "abi": [
    {
      "inputs": [
        {
          "internalType": "string",
          "name": "_initBaseURI",
          "type": "string"
        }
      ],
      "stateMutability": "nonpayable",
      "type": "constructor"
    },
    {
      "inputs": [],
      "name": "ApprovalCallerNotOwnerNorApproved",
      "type": "error"
    },
    {
      "inputs": [],
      "name": "ApprovalQueryForNonexistentToken",
      "type": "error"
    },
    {
      "inputs": [],
      "name": "BalanceQueryForZeroAddress",
      "type": "error"
    },
    {
      "inputs": [],
      "name": "InsufficientFunds",
      "type": "error"
    },
    {
      "inputs": [],
      "name": "MintERC2309QuantityExceedsLimit",
      "type": "error"
    },
    {
      "inputs": [],
      "name": "MintToZeroAddress",
      "type": "error"
    },
    {
      "inputs": [],
      "name": "MintZeroQuantity",
      "type": "error"
    },
    {
      "inputs": [],
      "name": "OwnerQueryForNonexistentToken",
      "type": "error"
    },
    {
      "inputs": [],
      "name": "OwnershipNotInitializedForExtraData",
      "type": "error"
    },
    {
      "inputs": [],
      "name": "TransferCallerNotOwnerNorApproved",
      "type": "error"
    },
    {
      "inputs": [],
      "name": "TransferFromIncorrectOwner",
      "type": "error"
    },
    {
      "inputs": [],
      "name": "TransferToNonERC721ReceiverImplementer",
      "type": "error"
    },
    {
      "inputs": [],
      "name": "TransferToZeroAddress",
      "type": "error"
    },
    {
      "inputs": [],
      "name": "URIQueryForNonexistentToken",
      "type": "error"
    },
    {
      "anonymous": false,
      "inputs": [
        {
          "indexed": true,
          "internalType": "address",
          "name": "owner",
          "type": "address"
        },
        {
          "indexed": true,
          "internalType": "address",
          "name": "approved",
          "type": "address"
        },
        {
          "indexed": true,
          "internalType": "uint256",
          "name": "tokenId",
          "type": "uint256"
        }
      ],
      "name": "Approval",
      "type": "event"
    },
    {
      "anonymous": false,
      "inputs": [
        {
          "indexed": true,
          "internalType": "address",
          "name": "owner",
          "type": "address"
        },
        {
          "indexed": true,
          "internalType": "address",
          "name": "operator",
          "type": "address"
        },
        {
          "indexed": false,
          "internalType": "bool",
          "name": "approved",
          "type": "bool"
        }
      ],
      "name": "ApprovalForAll",
      "type": "event"
    },
    {
      "anonymous": false,
      "inputs": [
        {
          "indexed": true,
          "internalType": "uint256",
          "name": "fromTokenId",
          "type": "uint256"
        },
        {
          "indexed": false,
          "internalType": "uint256",
          "name": "toTokenId",
          "type": "uint256"
        },
        {
          "indexed": true,
          "internalType": "address",
          "name": "from",
          "type": "address"
        },
        {
          "indexed": true,
          "internalType": "address",
          "name": "to",
          "type": "address"
        }
      ],
      "name": "ConsecutiveTransfer",
      "type": "event"
    },
    {
      "anonymous": false,
      "inputs": [
        {
          "indexed": true,
          "internalType": "address",
          "name": "previousOwner",
          "type": "address"
        },
        {
          "indexed": true,
          "internalType": "address",
          "name": "newOwner",
          "type": "address"
        }
      ],
      "name": "OwnershipTransferred",
      "type": "event"
    },
    {
      "anonymous": false,
      "inputs": [
        {
          "indexed": true,
          "internalType": "address",
          "name": "from",
          "type": "address"
        },
        {
          "indexed": true,
          "internalType": "address",
          "name": "to",
          "type": "address"
        },
        {
          "indexed": true,
          "internalType": "uint256",
          "name": "tokenId",
          "type": "uint256"
        }
      ],
      "name": "Transfer",
      "type": "event"
    },
    {
      "inputs": [],
      "name": "MaxperTxWL",
      "outputs": [
        {
          "internalType": "uint256",
          "name": "",
          "type": "uint256"
        }
      ],
      "stateMutability": "view",
      "type": "function"
    },
    {
      "inputs": [],
      "name": "MaxperWallet",
      "outputs": [
        {
          "internalType": "uint256",
          "name": "",
          "type": "uint256"
        }
      ],
      "stateMutability": "view",
      "type": "function"
    },
    {
      "inputs": [],
      "name": "MaxperWalletWL",
      "outputs": [
        {
          "internalType": "uint256",
          "name": "",
          "type": "uint256"
        }
      ],
      "stateMutability": "view",
      "type": "function"
    },
    {
      "inputs": [
        {
          "internalType": "uint256",
          "name": "tokens",
          "type": "uint256"
        },
        {
          "internalType": "bytes32[]",
          "name": "merkleProof",
          "type": "bytes32[]"
        }
      ],
      "name": "WLMint",
      "outputs": [],
      "stateMutability": "payable",
      "type": "function"
    },
    {
      "inputs": [
        {
          "internalType": "address",
          "name": "to",
          "type": "address"
        },
        {
          "internalType": "uint256",
          "name": "tokenId",
          "type": "uint256"
        }
      ],
      "name": "approve",
      "outputs": [],
      "stateMutability": "payable",
      "type": "function"
    },
    {
      "inputs": [
        {
          "internalType": "address",
          "name": "owner",
          "type": "address"
        }
      ],
      "name": "balanceOf",
      "outputs": [
        {
          "internalType": "uint256",
          "name": "",
          "type": "uint256"
        }
      ],
      "stateMutability": "view",
      "type": "function"
    },
    {
      "inputs": [],
      "name": "baseExtension",
      "outputs": [
        {
          "internalType": "string",
          "name": "",
          "type": "string"
        }
      ],
      "stateMutability": "view",
      "type": "function"
    },
    {
      "inputs": [],
      "name": "baseURI",
      "outputs": [
        {
          "internalType": "string",
          "name": "",
          "type": "string"
        }
      ],
      "stateMutability": "view",
      "type": "function"
    },
    {
      "inputs": [],
      "name": "cost",
      "outputs": [
        {
          "internalType": "uint256",
          "name": "",
          "type": "uint256"
        }
      ],
      "stateMutability": "view",
      "type": "function"
    },
    {
      "inputs": [],
      "name": "firstCost",
      "outputs": [
        {
          "internalType": "uint256",
          "name": "",
          "type": "uint256"
        }
      ],
      "stateMutability": "view",
      "type": "function"
    },
    {
      "inputs": [
        {
          "internalType": "uint256",
          "name": "tokenId",
          "type": "uint256"
        }
      ],
      "name": "getApproved",
      "outputs": [
        {
          "internalType": "address",
          "name": "",
          "type": "address"
        }
      ],
      "stateMutability": "view",
      "type": "function"
    },
    {
      "inputs": [
        {
          "internalType": "uint256",
          "name": "_mintAmount",
          "type": "uint256"
        },
        {
          "internalType": "address",
          "name": "destination",
          "type": "address"
        }
      ],
      "name": "gift",
      "outputs": [],
      "stateMutability": "nonpayable",
      "type": "function"
    },
    {
      "inputs": [
        {
          "internalType": "address",
          "name": "owner",
          "type": "address"
        },
        {
          "internalType": "address",
          "name": "operator",
          "type": "address"
        }
      ],
      "name": "isApprovedForAll",
      "outputs": [
        {
          "internalType": "bool",
          "name": "",
          "type": "bool"
        }
      ],
      "stateMutability": "view",
      "type": "function"
    },
    {
      "inputs": [],
      "name": "maxSupply",
      "outputs": [
        {
          "internalType": "uint256",
          "name": "",
          "type": "uint256"
        }
      ],
      "stateMutability": "view",
      "type": "function"
    },
    {
      "inputs": [],
      "name": "merkleRoot",
      "outputs": [
        {
          "internalType": "bytes32",
          "name": "",
          "type": "bytes32"
        }
      ],
      "stateMutability": "view",
      "type": "function"
    },
    {
      "inputs": [],
      "name": "name",
      "outputs": [
        {
          "internalType": "string",
          "name": "",
          "type": "string"
        }
      ],
      "stateMutability": "view",
      "type": "function"
    },
    {
      "inputs": [],
      "name": "notRevealedUri",
      "outputs": [
        {
          "internalType": "string",
          "name": "",
          "type": "string"
        }
      ],
      "stateMutability": "view",
      "type": "function"
    },
    {
      "inputs": [
        {
          "internalType": "address",
          "name": "owner",
          "type": "address"
        }
      ],
      "name": "numberMinted",
      "outputs": [
        {
          "internalType": "uint256",
          "name": "",
          "type": "uint256"
        }
      ],
      "stateMutability": "view",
      "type": "function"
    },
    {
      "inputs": [],
      "name": "owner",
      "outputs": [
        {
          "internalType": "address",
          "name": "",
          "type": "address"
        }
      ],
      "stateMutability": "view",
      "type": "function"
    },
    {
      "inputs": [
        {
          "internalType": "uint256",
          "name": "tokenId",
          "type": "uint256"
        }
      ],
      "name": "ownerOf",
      "outputs": [
        {
          "internalType": "address",
          "name": "",
          "type": "address"
        }
      ],
      "stateMutability": "view",
      "type": "function"
    },
    {
      "inputs": [
        {
          "internalType": "bool",
          "name": "_state",
          "type": "bool"
        }
      ],
      "name": "pause",
      "outputs": [],
      "stateMutability": "nonpayable",
      "type": "function"
    },
    {
      "inputs": [],
      "name": "paused",
      "outputs": [
        {
          "internalType": "bool",
          "name": "",
          "type": "bool"
        }
      ],
      "stateMutability": "view",
      "type": "function"
    },
    {
      "inputs": [],
      "name": "publicSale",
      "outputs": [
        {
          "internalType": "bool",
          "name": "",
          "type": "bool"
        }
      ],
      "stateMutability": "view",
      "type": "function"
    },
    {
      "inputs": [
        {
          "internalType": "uint256",
          "name": "tokens",
          "type": "uint256"
        }
      ],
      "name": "publicSaleMint",
      "outputs": [],
      "stateMutability": "payable",
      "type": "function"
    },
    {
      "inputs": [],
      "name": "renounceOwnership",
      "outputs": [],
      "stateMutability": "nonpayable",
      "type": "function"
    },
    {
      "inputs": [
        {
          "internalType": "bool",
          "name": "_state",
          "type": "bool"
        }
      ],
      "name": "reveal",
      "outputs": [],
      "stateMutability": "nonpayable",
      "type": "function"
    },
    {
      "inputs": [],
      "name": "revealed",
      "outputs": [
        {
          "internalType": "bool",
          "name": "",
          "type": "bool"
        }
      ],
      "stateMutability": "view",
      "type": "function"
    },
    {
      "inputs": [
        {
          "internalType": "address",
          "name": "from",
          "type": "address"
        },
        {
          "internalType": "address",
          "name": "to",
          "type": "address"
        },
        {
          "internalType": "uint256",
          "name": "tokenId",
          "type": "uint256"
        }
      ],
      "name": "safeTransferFrom",
      "outputs": [],
      "stateMutability": "payable",
      "type": "function"
    },
    {
      "inputs": [
        {
          "internalType": "address",
          "name": "from",
          "type": "address"
        },
        {
          "internalType": "address",
          "name": "to",
          "type": "address"
        },
        {
          "internalType": "uint256",
          "name": "tokenId",
          "type": "uint256"
        },
        {
          "internalType": "bytes",
          "name": "_data",
          "type": "bytes"
        }
      ],
      "name": "safeTransferFrom",
      "outputs": [],
      "stateMutability": "payable",
      "type": "function"
    },
    {
      "inputs": [
        {
          "internalType": "address",
          "name": "operator",
          "type": "address"
        },
        {
          "internalType": "bool",
          "name": "approved",
          "type": "bool"
        }
      ],
      "name": "setApprovalForAll",
      "outputs": [],
      "stateMutability": "nonpayable",
      "type": "function"
    },
    {
      "inputs": [
        {
          "internalType": "string",
          "name": "_newBaseExtension",
          "type": "string"
        }
      ],
      "name": "setBaseExtension",
      "outputs": [],
      "stateMutability": "nonpayable",
      "type": "function"
    },
    {
      "inputs": [
        {
          "internalType": "string",
          "name": "_newBaseURI",
          "type": "string"
        }
      ],
      "name": "setBaseURI",
      "outputs": [],
      "stateMutability": "nonpayable",
      "type": "function"
    },
    {
      "inputs": [
        {
          "internalType": "uint256",
          "name": "_newCost",
          "type": "uint256"
        }
      ],
      "name": "setCost",
      "outputs": [],
      "stateMutability": "nonpayable",
      "type": "function"
    },
    {
      "inputs": [
        {
          "internalType": "uint256",
          "name": "_limit",
          "type": "uint256"
        }
      ],
      "name": "setMaxPerWallet",
      "outputs": [],
      "stateMutability": "nonpayable",
      "type": "function"
    },
    {
      "inputs": [
        {
          "internalType": "uint256",
          "name": "_limit",
          "type": "uint256"
        }
      ],
      "name": "setMaxperWalletWL",
      "outputs": [],
      "stateMutability": "nonpayable",
      "type": "function"
    },
    {
      "inputs": [
        {
          "internalType": "uint256",
          "name": "_newsupply",
          "type": "uint256"
        }
      ],
      "name": "setMaxsupply",
      "outputs": [],
      "stateMutability": "nonpayable",
      "type": "function"
    },
    {
      "inputs": [
        {
          "internalType": "bytes32",
          "name": "_merkleRoot",
          "type": "bytes32"
        }
      ],
      "name": "setMerkleRoot",
      "outputs": [],
      "stateMutability": "nonpayable",
      "type": "function"
    },
    {
      "inputs": [
        {
          "internalType": "string",
          "name": "_notRevealedURI",
          "type": "string"
        }
      ],
      "name": "setNotRevealedURI",
      "outputs": [],
      "stateMutability": "nonpayable",
      "type": "function"
    },
    {
      "inputs": [
        {
          "internalType": "uint256",
          "name": "_newwlCost",
          "type": "uint256"
        }
      ],
      "name": "setWlCost",
      "outputs": [],
      "stateMutability": "nonpayable",
      "type": "function"
    },
    {
      "inputs": [
        {
          "internalType": "bytes4",
          "name": "interfaceId",
          "type": "bytes4"
        }
      ],
      "name": "supportsInterface",
      "outputs": [
        {
          "internalType": "bool",
          "name": "",
          "type": "bool"
        }
      ],
      "stateMutability": "view",
      "type": "function"
    },
    {
      "inputs": [],
      "name": "symbol",
      "outputs": [
        {
          "internalType": "string",
          "name": "",
          "type": "string"
        }
      ],
      "stateMutability": "view",
      "type": "function"
    },
    {
      "inputs": [
        {
          "internalType": "bool",
          "name": "_state",
          "type": "bool"
        }
      ],
      "name": "togglepublicSale",
      "outputs": [],
      "stateMutability": "nonpayable",
      "type": "function"
    },
    {
      "inputs": [
        {
          "internalType": "bool",
          "name": "_state",
          "type": "bool"
        }
      ],
      "name": "togglewlMint",
      "outputs": [],
      "stateMutability": "nonpayable",
      "type": "function"
    },
    {
      "inputs": [
        {
          "internalType": "uint256",
          "name": "tokenId",
          "type": "uint256"
        }
      ],
      "name": "tokenURI",
      "outputs": [
        {
          "internalType": "string",
          "name": "",
          "type": "string"
        }
      ],
      "stateMutability": "view",
      "type": "function"
    },
    {
      "inputs": [],
      "name": "totalSupply",
      "outputs": [
        {
          "internalType": "uint256",
          "name": "",
          "type": "uint256"
        }
      ],
      "stateMutability": "view",
      "type": "function"
    },
    {
      "inputs": [
        {
          "internalType": "address",
          "name": "from",
          "type": "address"
        },
        {
          "internalType": "address",
          "name": "to",
          "type": "address"
        },
        {
          "internalType": "uint256",
          "name": "tokenId",
          "type": "uint256"
        }
      ],
      "name": "transferFrom",
      "outputs": [],
      "stateMutability": "payable",
      "type": "function"
    },
    {
      "inputs": [
        {
          "internalType": "address",
          "name": "newOwner",
          "type": "address"
        }
      ],
      "name": "transferOwnership",
      "outputs": [],
      "stateMutability": "nonpayable",
      "type": "function"
    },
    {
      "inputs": [],
      "name": "withdraw",
      "outputs": [],
      "stateMutability": "payable",
      "type": "function"
    },
    {
      "inputs": [],
      "name": "wlCost",
      "outputs": [
        {
          "internalType": "uint256",
          "name": "",
          "type": "uint256"
        }
      ],
      "stateMutability": "view",
      "type": "function"
    },
    {
      "inputs": [],
      "name": "wlMint",
      "outputs": [
        {
          "internalType": "bool",
          "name": "",
          "type": "bool"
        }
      ],
      "stateMutability": "view",
      "type": "function"
    }
  ],
  "bytecode": "0x60c06040526005608081905264173539b7b760d91b60a09081526200002891600b91906200023b565b50604051806060016040528060368152602001620028fe6036913980516200005991600c916020909101906200023b565b5066038d7ea4c68000600d8190556000600e819055600f91909155611a0a6010556005601181905560128190556013556014805463ffffffff19166301010000179055601555348015620000ac57600080fd5b506040516200293438038062002934833981016040819052620000cf91620002f7565b60408051808201825260128152710a8d0ca40a4c2d2dcc4deee40a8e4d2c4cab60731b6020808301918252835180850190945260048452630a8a4a8b60e31b90840152815191929162000125916002916200023b565b5080516200013b9060039060208401906200023b565b50506001600055506200014e3362000165565b60016009556200015e81620001b7565b5062000410565b600880546001600160a01b038381166001600160a01b0319831681179093556040519116919082907f8be0079c531659141344cd1fd0a4f28419497f9722a3daafe3b4186f6b6457e090600090a35050565b620001c1620001da565b8051620001d690600a9060208401906200023b565b5050565b6008546001600160a01b03163314620002395760405162461bcd60e51b815260206004820181905260248201527f4f776e61626c653a2063616c6c6572206973206e6f7420746865206f776e6572604482015260640160405180910390fd5b565b8280546200024990620003d3565b90600052602060002090601f0160209004810192826200026d5760008555620002b8565b82601f106200028857805160ff1916838001178555620002b8565b82800160010185558215620002b8579182015b82811115620002b85782518255916020019190600101906200029b565b50620002c6929150620002ca565b5090565b5b80821115620002c65760008155600101620002cb565b634e487b7160e01b600052604160045260246000fd5b600060208083850312156200030b57600080fd5b82516001600160401b03808211156200032357600080fd5b818501915085601f8301126200033857600080fd5b8151818111156200034d576200034d620002e1565b604051601f8201601f19908116603f01168101908382118183101715620003785762000378620002e1565b8160405282815288868487010111156200039157600080fd5b600093505b82841015620003b5578484018601518185018701529285019262000396565b82841115620003c75760008684830101525b98975050505050505050565b600181811c90821680620003e857607f821691505b602082108114156200040a57634e487b7160e01b600052602260045260246000fd5b50919050565b6124de80620004206000396000f3fe6080604052600436106102c95760003560e01c80637f9fa41111610175578063c87b56dd116100dc578063e5170b1611610095578063f12f6d5d1161006f578063f12f6d5d146107ff578063f2c4ce1e1461081f578063f2fde38b1461083f578063f3257cdd1461085f57600080fd5b8063e5170b1614610780578063e985e9c514610796578063f0539802146107df57600080fd5b8063c87b56dd146106d4578063d5abeb01146106f4578063d70a28d11461070a578063da3ef23f14610720578063dc33e68114610740578063e268e4d31461076057600080fd5b8063a6e566b11161012e578063a6e566b114610657578063aeeae3a61461066d578063b3ab66b014610683578063b88d4fde14610696578063bd7a1998146106a9578063c6682862146106bf57600080fd5b80637f9fa411146105a457806383a076be146105c45780638da5cb5b146105e4578063940cd05b1461060257806395d89b4114610622578063a22cb4651461063757600080fd5b806333bc1c5c1161023457806355f804b3116101ed5780636c0360eb116101c75780636c0360eb1461053a57806370a082311461054f578063715018a61461056f5780637cb647591461058457600080fd5b806355f804b3146104e05780635c975abb146105005780636352211e1461051a57600080fd5b806333bc1c5c146104455780633ccfd60b1461046657806342842e0e1461046e57806344a0d68a1461048157806345c490c0146104a157806351830227146104c157600080fd5b806313faede61161028657806313faede6146103a7578063149835a0146103cb57806318160ddd146103eb578063226fe1c01461040957806323b872dd1461041c5780632eb4a7ab1461042f57600080fd5b806301ffc9a7146102ce57806302329a291461030357806306fdde0314610325578063081812fc14610347578063081c8c441461037f578063095ea7b314610394575b600080fd5b3480156102da57600080fd5b506102ee6102e9366004611e55565b61087f565b60405190151581526020015b60405180910390f35b34801561030f57600080fd5b5061032361031e366004611e87565b6108d1565b005b34801561033157600080fd5b5061033a6108ec565b6040516102fa9190611efa565b34801561035357600080fd5b50610367610362366004611f0d565b61097e565b6040516001600160a01b0390911681526020016102fa565b34801561038b57600080fd5b5061033a6109c2565b6103236103a2366004611f3d565b610a50565b3480156103b357600080fd5b506103bd600d5481565b6040519081526020016102fa565b3480156103d757600080fd5b506103236103e6366004611f0d565b610af0565b3480156103f757600080fd5b506103bd600154600054036000190190565b610323610417366004611f67565b610afd565b61032361042a366004611fe6565b610e97565b34801561043b57600080fd5b506103bd60155481565b34801561045157600080fd5b506014546102ee906301000000900460ff1681565b610323611028565b61032361047c366004611fe6565b6110b5565b34801561048d57600080fd5b5061032361049c366004611f0d565b6110d5565b3480156104ad57600080fd5b506103236104bc366004611e87565b6110e2565b3480156104cd57600080fd5b506014546102ee90610100900460ff1681565b3480156104ec57600080fd5b506103236104fb3660046120ae565b611106565b34801561050c57600080fd5b506014546102ee9060ff1681565b34801561052657600080fd5b50610367610535366004611f0d565b611125565b34801561054657600080fd5b5061033a611130565b34801561055b57600080fd5b506103bd61056a3660046120f7565b61113d565b34801561057b57600080fd5b5061032361118c565b34801561059057600080fd5b5061032361059f366004611f0d565b6111a0565b3480156105b057600080fd5b506014546102ee9062010000900460ff1681565b3480156105d057600080fd5b506103236105df366004612112565b6111ad565b3480156105f057600080fd5b506008546001600160a01b0316610367565b34801561060e57600080fd5b5061032361061d366004611e87565b611278565b34801561062e57600080fd5b5061033a61129a565b34801561064357600080fd5b5061032361065236600461213e565b6112a9565b34801561066357600080fd5b506103bd60135481565b34801561067957600080fd5b506103bd60125481565b610323610691366004611f0d565b611315565b6103236106a4366004612168565b61157c565b3480156106b557600080fd5b506103bd60115481565b3480156106cb57600080fd5b5061033a6115c6565b3480156106e057600080fd5b5061033a6106ef366004611f0d565b6115d3565b34801561070057600080fd5b506103bd60105481565b34801561071657600080fd5b506103bd600f5481565b34801561072c57600080fd5b5061032361073b3660046120ae565b611743565b34801561074c57600080fd5b506103bd61075b3660046120f7565b61175e565b34801561076c57600080fd5b5061032361077b366004611f0d565b611769565b34801561078c57600080fd5b506103bd600e5481565b3480156107a257600080fd5b506102ee6107b13660046121e4565b6001600160a01b03918216600090815260076020908152604080832093909416825291909152205460ff1690565b3480156107eb57600080fd5b506103236107fa366004611f0d565b611776565b34801561080b57600080fd5b5061032361081a366004611f0d565b611783565b34801561082b57600080fd5b5061032361083a3660046120ae565b611790565b34801561084b57600080fd5b5061032361085a3660046120f7565b6117ab565b34801561086b57600080fd5b5061032361087a366004611e87565b611824565b60006301ffc9a760e01b6001600160e01b0319831614806108b057506380ac58cd60e01b6001600160e01b03198316145b806108cb5750635b5e139f60e01b6001600160e01b03198316145b92915050565b6108d961184a565b6014805460ff1916911515919091179055565b6060600280546108fb9061220e565b80601f01602080910402602001604051908101604052809291908181526020018280546109279061220e565b80156109745780601f1061094957610100808354040283529160200191610974565b820191906000526020600020905b81548152906001019060200180831161095757829003601f168201915b5050505050905090565b6000610989826118a4565b6109a6576040516333d1c03960e21b815260040160405180910390fd5b506000908152600660205260409020546001600160a01b031690565b600c80546109cf9061220e565b80601f01602080910402602001604051908101604052809291908181526020018280546109fb9061220e565b8015610a485780601f10610a1d57610100808354040283529160200191610a48565b820191906000526020600020905b815481529060010190602001808311610a2b57829003601f168201915b505050505081565b6000610a5b82611125565b9050336001600160a01b03821614610a9457610a7781336107b1565b610a94576040516367d9dca160e11b815260040160405180910390fd5b60008281526006602052604080822080546001600160a01b0319166001600160a01b0387811691821790925591518593918516917f8c5be1e5ebec7d5bd14f71427d1e84f3dd0314c0f7b2291e5b200ac8c7c3b92591a4505050565b610af861184a565b601055565b60026009541415610b295760405162461bcd60e51b8152600401610b2090612249565b60405180910390fd5b600260095560145460ff1615610b7b5760405162461bcd60e51b81526020600482015260176024820152761bdbdc1cc818dbdb9d1c9858dd081a5cc81c185d5cd959604a1b6044820152606401610b20565b60145462010000900460ff16610bd35760405162461bcd60e51b815260206004820152601960248201527f776c4d696e74204861736e2774207374617274656420796574000000000000006044820152606401610b20565b610c48828280806020026020016040519081016040528093929190818152602001838360200280828437600092019190915250506015546040516bffffffffffffffffffffffff193360601b1660208201529092506034019050604051602081830303815290604052805190602001206118d9565b610c945760405162461bcd60e51b815260206004820152601860248201527f20596f7520617265206e6f742077686974656c697374656400000000000000006044820152606401610b20565b6000610ca7600154600054036000190190565b905060125484610ce0610cb73390565b6001600160a01b03166000908152600560205260409081902054901c67ffffffffffffffff1690565b610cea9190612296565b1115610d385760405162461bcd60e51b815260206004820152601b60248201527f4d6178204e4654205065722057616c6c657420657863656564656400000000006044820152606401610b20565b60008411610d585760405162461bcd60e51b8152600401610b20906122ae565b601054610d658583612296565b1115610da05760405162461bcd60e51b815260206004820152600a60248201526915d94814dbdb191bdd5d60b21b6044820152606401610b20565b601354841115610df25760405162461bcd60e51b815260206004820152601860248201527f6d6178206d696e742070657220547820657863656564656400000000000000006044820152606401610b20565b600184610dfe33610cb7565b610e089190612296565b11158015610e22575083600e54610e1f91906122e5565b34105b15610e405760405163356680b760e01b815260040160405180910390fd5b600184610e4c33610cb7565b610e569190612296565b118015610e645750600f5434105b15610e825760405163356680b760e01b815260040160405180910390fd5b610e8c33856118ef565b505060016009555050565b6000610ea282611909565b9050836001600160a01b0316816001600160a01b031614610ed55760405162a1148160e81b815260040160405180910390fd5b60008281526006602052604090208054338082146001600160a01b03881690911417610f2257610f0586336107b1565b610f2257604051632ce44b5f60e11b815260040160405180910390fd5b6001600160a01b038516610f4957604051633a954ecd60e21b815260040160405180910390fd5b8015610f5457600082555b6001600160a01b038681166000908152600560205260408082208054600019019055918716808252919020805460010190554260a01b17600160e11b17600085815260046020526040902055600160e11b8316610fdf5760018401600081815260046020526040902054610fdd576000548114610fdd5760008181526004602052604090208490555b505b83856001600160a01b0316876001600160a01b03167fddf252ad1be2c89b69c2b068fc378daa952ba7f163c4a11628f55a4df523b3ef60405160405180910390a4505050505050565b61103061184a565b600260095414156110535760405162461bcd60e51b8152600401610b2090612249565b6002600955604051600090339047908381818185875af1925050503d806000811461109a576040519150601f19603f3d011682016040523d82523d6000602084013e61109f565b606091505b50509050806110ad57600080fd5b506001600955565b6110d08383836040518060200160405280600081525061157c565b505050565b6110dd61184a565b600d55565b6110ea61184a565b60148054911515620100000262ff000019909216919091179055565b61110e61184a565b805161112190600a906020840190611da6565b5050565b60006108cb82611909565b600a80546109cf9061220e565b60006001600160a01b038216611166576040516323d3ad8160e21b815260040160405180910390fd5b506001600160a01b031660009081526005602052604090205467ffffffffffffffff1690565b61119461184a565b61119e6000611972565b565b6111a861184a565b601555565b6111b561184a565b600260095414156111d85760405162461bcd60e51b8152600401610b2090612249565b6002600955816111fa5760405162461bcd60e51b8152600401610b20906122ae565b600061120d600154600054036000190190565b60105490915061121d8483612296565b11156112645760405162461bcd60e51b81526020600482015260166024820152751b585e08139195081b1a5b5a5d08195e18d95959195960521b6044820152606401610b20565b61126e82846118ef565b5050600160095550565b61128061184a565b601480549115156101000261ff0019909216919091179055565b6060600380546108fb9061220e565b3360008181526007602090815260408083206001600160a01b03871680855290835292819020805460ff191686151590811790915590519081529192917f17307eab39ab6107e8899845ad3d59bd9653f200f220920489ca2b5937696c31910160405180910390a35050565b600260095414156113385760405162461bcd60e51b8152600401610b2090612249565b600260095560145460ff161561138a5760405162461bcd60e51b81526020600482015260176024820152761bdbdc1cc818dbdb9d1c9858dd081a5cc81c185d5cd959604a1b6044820152606401610b20565b6014546301000000900460ff166113e35760405162461bcd60e51b815260206004820152601760248201527f53616c65204861736e27742073746172746564207965740000000000000000006044820152606401610b20565b60006113f6600154600054036000190190565b9050600082116114185760405162461bcd60e51b8152600401610b20906122ae565b60115482111561146a5760405162461bcd60e51b815260206004820152601b60248201527f6d6178206d696e7420616d6f756e7420545820657863656564656400000000006044820152606401610b20565b6010546114778383612296565b11156114b25760405162461bcd60e51b815260206004820152600a60248201526915d94814dbdb191bdd5d60b21b6044820152606401610b20565b601154826114bf33610cb7565b6114c99190612296565b11156115175760405162461bcd60e51b815260206004820152601c60248201527f204d6178204e4654205065722057616c6c6574206578636565646564000000006044820152606401610b20565b81600d5461152591906122e5565b3410156115695760405162461bcd60e51b8152602060048201526012602482015271696e73756666696369656e742066756e647360701b6044820152606401610b20565b61157333836118ef565b50506001600955565b611587848484610e97565b6001600160a01b0383163b156115c0576115a3848484846119c4565b6115c0576040516368d2bf6b60e11b815260040160405180910390fd5b50505050565b600b80546109cf9061220e565b60606115de826118a4565b6116435760405162461bcd60e51b815260206004820152603060248201527f455243373231414d657461646174613a2055524920717565727920666f72206e60448201526f37b732bc34b9ba32b73a103a37b5b2b760811b6064820152608401610b20565b601454610100900460ff166116e457600c805461165f9061220e565b80601f016020809104026020016040519081016040528092919081815260200182805461168b9061220e565b80156116d85780601f106116ad576101008083540402835291602001916116d8565b820191906000526020600020905b8154815290600101906020018083116116bb57829003601f168201915b50505050509050919050565b60006116ee611abc565b9050600081511161170e576040518060200160405280600081525061173c565b8061171884611acb565b600b60405160200161172c93929190612304565b6040516020818303038152906040525b9392505050565b61174b61184a565b805161112190600b906020840190611da6565b60006108cb82610cb7565b61177161184a565b601155565b61177e61184a565b601255565b61178b61184a565b600f55565b61179861184a565b805161112190600c906020840190611da6565b6117b361184a565b6001600160a01b0381166118185760405162461bcd60e51b815260206004820152602660248201527f4f776e61626c653a206e6577206f776e657220697320746865207a65726f206160448201526564647265737360d01b6064820152608401610b20565b61182181611972565b50565b61182c61184a565b6014805491151563010000000263ff00000019909216919091179055565b6008546001600160a01b0316331461119e5760405162461bcd60e51b815260206004820181905260248201527f4f776e61626c653a2063616c6c6572206973206e6f7420746865206f776e65726044820152606401610b20565b6000816001111580156118b8575060005482105b80156108cb575050600090815260046020526040902054600160e01b161590565b6000826118e68584611bc9565b14949350505050565b611121828260405180602001604052806000815250611c16565b600081806001116119595760005481101561195957600081815260046020526040902054600160e01b8116611957575b8061173c575060001901600081815260046020526040902054611939565b505b604051636f96cda160e11b815260040160405180910390fd5b600880546001600160a01b038381166001600160a01b0319831681179093556040519116919082907f8be0079c531659141344cd1fd0a4f28419497f9722a3daafe3b4186f6b6457e090600090a35050565b604051630a85bd0160e11b81526000906001600160a01b0385169063150b7a02906119f99033908990889088906004016123c8565b602060405180830381600087803b158015611a1357600080fd5b505af1925050508015611a43575060408051601f3d908101601f19168201909252611a4091810190612405565b60015b611a9e573d808015611a71576040519150601f19603f3d011682016040523d82523d6000602084013e611a76565b606091505b508051611a96576040516368d2bf6b60e11b815260040160405180910390fd5b805181602001fd5b6001600160e01b031916630a85bd0160e11b1490505b949350505050565b6060600a80546108fb9061220e565b606081611aef5750506040805180820190915260018152600360fc1b602082015290565b8160005b8115611b195780611b0381612422565b9150611b129050600a83612453565b9150611af3565b60008167ffffffffffffffff811115611b3457611b34612022565b6040519080825280601f01601f191660200182016040528015611b5e576020820181803683370190505b5090505b8415611ab457611b73600183612467565b9150611b80600a8661247e565b611b8b906030612296565b60f81b818381518110611ba057611ba0612492565b60200101906001600160f81b031916908160001a905350611bc2600a86612453565b9450611b62565b600081815b8451811015611c0e57611bfa82868381518110611bed57611bed612492565b6020026020010151611c83565b915080611c0681612422565b915050611bce565b509392505050565b611c208383611caf565b6001600160a01b0383163b156110d0576000548281035b611c4a60008683806001019450866119c4565b611c67576040516368d2bf6b60e11b815260040160405180910390fd5b818110611c37578160005414611c7c57600080fd5b5050505050565b6000818310611c9f57600082815260208490526040902061173c565b5060009182526020526040902090565b60005481611cd05760405163b562e8dd60e01b815260040160405180910390fd5b6001600160a01b03831660008181526005602090815260408083208054680100000000000000018802019055848352600490915281206001851460e11b4260a01b178317905582840190839083907fddf252ad1be2c89b69c2b068fc378daa952ba7f163c4a11628f55a4df523b3ef8180a4600183015b818114611d7f57808360007fddf252ad1be2c89b69c2b068fc378daa952ba7f163c4a11628f55a4df523b3ef600080a4600101611d47565b5081611d9d57604051622e076360e81b815260040160405180910390fd5b60005550505050565b828054611db29061220e565b90600052602060002090601f016020900481019282611dd45760008555611e1a565b82601f10611ded57805160ff1916838001178555611e1a565b82800160010185558215611e1a579182015b82811115611e1a578251825591602001919060010190611dff565b50611e26929150611e2a565b5090565b5b80821115611e265760008155600101611e2b565b6001600160e01b03198116811461182157600080fd5b600060208284031215611e6757600080fd5b813561173c81611e3f565b80358015158114611e8257600080fd5b919050565b600060208284031215611e9957600080fd5b61173c82611e72565b60005b83811015611ebd578181015183820152602001611ea5565b838111156115c05750506000910152565b60008151808452611ee6816020860160208601611ea2565b601f01601f19169290920160200192915050565b60208152600061173c6020830184611ece565b600060208284031215611f1f57600080fd5b5035919050565b80356001600160a01b0381168114611e8257600080fd5b60008060408385031215611f5057600080fd5b611f5983611f26565b946020939093013593505050565b600080600060408486031215611f7c57600080fd5b83359250602084013567ffffffffffffffff80821115611f9b57600080fd5b818601915086601f830112611faf57600080fd5b813581811115611fbe57600080fd5b8760208260051b8501011115611fd357600080fd5b6020830194508093505050509250925092565b600080600060608486031215611ffb57600080fd5b61200484611f26565b925061201260208501611f26565b9150604084013590509250925092565b634e487b7160e01b600052604160045260246000fd5b600067ffffffffffffffff8084111561205357612053612022565b604051601f8501601f19908116603f0116810190828211818310171561207b5761207b612022565b8160405280935085815286868601111561209457600080fd5b858560208301376000602087830101525050509392505050565b6000602082840312156120c057600080fd5b813567ffffffffffffffff8111156120d757600080fd5b8201601f810184136120e857600080fd5b611ab484823560208401612038565b60006020828403121561210957600080fd5b61173c82611f26565b6000806040838503121561212557600080fd5b8235915061213560208401611f26565b90509250929050565b6000806040838503121561215157600080fd5b61215a83611f26565b915061213560208401611e72565b6000806000806080858703121561217e57600080fd5b61218785611f26565b935061219560208601611f26565b925060408501359150606085013567ffffffffffffffff8111156121b857600080fd5b8501601f810187136121c957600080fd5b6121d887823560208401612038565b91505092959194509250565b600080604083850312156121f757600080fd5b61220083611f26565b915061213560208401611f26565b600181811c9082168061222257607f821691505b6020821081141561224357634e487b7160e01b600052602260045260246000fd5b50919050565b6020808252601f908201527f5265656e7472616e637947756172643a207265656e7472616e742063616c6c00604082015260600190565b634e487b7160e01b600052601160045260246000fd5b600082198211156122a9576122a9612280565b500190565b6020808252601b908201527f6e65656420746f206d696e74206174206c656173742031204e46540000000000604082015260600190565b60008160001904831182151516156122ff576122ff612280565b500290565b6000845160206123178285838a01611ea2565b85519184019161232a8184848a01611ea2565b8554920191600090600181811c908083168061234757607f831692505b85831081141561236557634e487b7160e01b85526022600452602485fd5b808015612379576001811461238a576123b7565b60ff198516885283880195506123b7565b60008b81526020902060005b858110156123af5781548a820152908401908801612396565b505083880195505b50939b9a5050505050505050505050565b6001600160a01b03858116825284166020820152604081018390526080606082018190526000906123fb90830184611ece565b9695505050505050565b60006020828403121561241757600080fd5b815161173c81611e3f565b600060001982141561243657612436612280565b5060010190565b634e487b7160e01b600052601260045260246000fd5b6000826124625761246261243d565b500490565b60008282101561247957612479612280565b500390565b60008261248d5761248d61243d565b500690565b634e487b7160e01b600052603260045260246000fdfea26469706673582212206472132aefe31f240298764f97cbd530b90e21088a87e216093a503cf129de7f64736f6c63430008090033697066733a2f2f516d525239694274334573474a754a6234727a43414c4b4e696178724a356947634d6842537966715766766e64612f",
  "linkReferences": {},
  "deployedLinkReferences": {}
}